:100000000C9406010C942E010C942E010C942E01DC
:100010000C942E010C942E010C942E010C942E01A4
:100020000C942E010C942E010C942E010C942E0194
:100030000C942E010C942E010C942E010C942E0184
:100040000C94F8190C942E010C948C180C946618CE
:100050000C942E010C942E010C942E010C942E0164
:100060000C94EC050C942E014E414E494E495459C6
:10007000494E46CDCCCC3D0AD7233C17B7D1387773
:10008000CC2B329595E6241FB14F0A000020410089
:1000900000C84200401C4620BCBE4CCA1B0E5AAED3
:1000A000C59D7400407A10F35A00A0724E180900E2
:1000B00010A5D4E80000E87648170000E40B5402CD
:1000C0000000CA9A3B000000E1F505000080969808
:1000D00000000040420F000000A086010000001058
:1000E0002700000000E8030000000064000000009A
:1000F000000A00000000000100000000002C76D87B
:1001000088DC674F0823DFC1DFAE59E1B1B796E560
:10011000E3E453C63AE651997696E8E6C28426EBC4
:10012000898C9B62ED407C6FFCEFBC9C9F40F2BAD7
:10013000A56FA5F490055A2AF75C936B6CF9676D6F
:10014000C11BFCE0E40D47FEF520E6B500D0ED90C4
:100150002E0300943577050080841E080000204E91
:100160000A000000C80C333333330F986E1283112A
:1001700041EF8D2114893BE65516CFFEE6DB18D101
:10018000844B381BF77C1D901DA4BBE424203284D3
:10019000725E228100C9F124ECA1E53D2700000038
:1001A00000240027002A00010204081020408001DA
:1001B00002040810200102040810200404040404AE
:1001C0000404040202020202020303030303037C89
:1001D0003C3E5E2B3D3F2F5B5D3B2C2A225C0000AA
:1001E000000000250028002B00000000002300264E
:1001F00000290000000008000201000003040700BD
:1002000000000000000000006E28662811241FBEB8
:10021000CFEFD8E0DEBFCDBF26E0A2E4B2E001C060
:100220001D92AA38B207E1F712E0A0E0B1E0E4E6DF
:10023000F6E602C005900D92A234B107D9F711E09D
:10024000C5E0D1E004C02197FE010E94E330C43034
:10025000D107C9F70E9422220C9425330C94000088
:10026000DC015996ED91FC915A973097B9F083894A
:100270009489A589B6894285538564857585841BD3
:10028000950BA60BB70B811520E89207A105B105C8
:1002900038F08FEF9FE7A0E0B0E0089580E090E0B5
:1002A0000895CF93DF931F92CDB7DEB76983DC014A
:1002B000ED91FC910280F381E02D41E050E0BE0120
:1002C0006F5F7F4F09950F90DF91CF91089585ED76
:1002D0008093BC008091BC0084FDFCCF1092BB02D7
:1002E000089540916E02262F30E0240F311D2132F7
:1002F0003105DCF42091BB022430C9F4FC0180E01C
:1003000090E0861758F430916E022191DC01A45BD5
:10031000BD4FA30FB11D2C930196F3CF80916E02B8
:10032000680F60936E0280E0089581E0089582E096
:1003300008950895E091C3058091C205E81730F44F
:10034000F0E0E951FD4F808190E008958FEF9FEF3D
:1003500008959091C3058091C205981750F4E92F34
:10036000F0E0E951FD4F208130E09F5F9093C3059D
:1003700002C02FEF3FEFC90108958091C20590E0C0
:100380002091C305821B91090895CF92DF92EF92CD
:10039000FF920F931F93CF93DF937C01262F972F0C
:1003A0008A018091BC02882391F0C62FD72F6E015D
:1003B000C40ED51ECC15DD0571F06991D701ED9104
:1003C000FC910190F081E02DC7010995F3CF642FD6
:1003D000822F0E947101C801DF91CF911F910F916F
:1003E000FF90EF90DF90CF900895CF93DF931F920F
:1003F000CDB7DEB769832091BC022223D1F02091D2
:10040000C005203240F021E030E0FC01338322833C
:1004100080E090E015C08091C105E82FF0E0E35442
:10042000FD4F998190838F5F8093C1058093C005B4
:1004300005C061E0CE0101960E94710181E090E06B
:100440000F90DF91CF910895089580E090E0089596
:10045000FC01818D928D009711F00C94FB12089590
:10046000CF93DF93EC01898D9A8D009739F481E069
:1004700090E09B838A8380E090E00BC0FC011382B4
:1004800012820E94CF13E98DFA8D22813381232BB2
:1004900071F7DF91CF9108958FB7F894809194020E
:1004A0008FBF089561E0FC0184810E94E71880916C
:1004B000930281111092930208958EBD00000DB435
:1004C00007FEFDCF8EB508958FEF0C945D020F935C
:1004D0001F93CF93DF93EB010E94EC198B010E94D5
:1004E00064028F3F49F00E94EC19601B710B6C177E
:1004F0007D07A8F380E001C081E0DF91CF911F91DB
:100500000F910895CF93DF93EC018E81882389F0BA
:100510008F8198859C012F5F3F4F38872F838230D2
:10052000924018F40E946402F3CFCE010E9452025E
:100530001E82DF91CF9108958CBD9DBD0895CF930C
:10054000DF93EC0180919302811109C081E08093D7
:1005500093028091C4059091C5050E949C0260E0C1
:100560008C81DF91CF910C94E718CF92DF92FF92AC
:100570000F931F93CF93DF9300D000D0CDB7DEB79A
:100580006C01F62E29833A834B835C830E9482029E
:10059000C6010E949F026CE271E0C6010E946702E0
:1005A0008F2D80640E945D0208E110E05C814B8128
:1005B0003A812981DA01C901002E04C0B695A795B8
:1005C000979587950A94D2F729833A834B835C8366
:1005D0000E945D020850110929813A814B815C819A
:1005E000083F8FEF180731F7FF2029F0E8E0FE12EF
:1005F00004C087E803C085E901C08FEF0E945D0257
:1006000010E00E946402F601828787FF04C01F3F4A
:1006100011F01F5FF6CF0F900F900F900F90DF91AA
:10062000CF911F910F91FF90DF90CF900895AF92DF
:10063000BF92CF92DF92EF92FF920F931F93CF93CF
:10064000DF93EC016901C801820F931F8130924052
:1006500008F070C08E81882371F088819981AA8109
:10066000BB81481759076A077B0729F48F81988552
:10067000C816D906B0F5488359836A837B838B8576
:10068000833039F089E0440F551F661F771F8A9524
:10069000D1F79A01AB0161E1CE010E94B502882336
:1006A00019F083E08D8346C00E94EC195B010E9423
:1006B00064028A878F3F49F40E94EC196A197B090A
:1006C0006D327140A0F38FE003C08E3F31F08DE0BA
:1006D0008D83CE010E9452022DC018861F8281E0B8
:1006E0008E838F8198858C159D0540F40E9464024D
:1006F0008F819885019698878F83F3CF6701E00EED
:10070000F11ECE14DF0431F00E946402F6018193E1
:100710006F01F7CF8F819885080F191F18870F83F6
:100720008985882319F00115124048F0CE010E94F6
:10073000820205C0CE010E94520280E001C081E029
:10074000DF91CF911F910F91FF90EF90DF90CF90AD
:10075000BF90AF900895EF92FF920F931F93CF93A6
:10076000DF93EC017901411551056105710511F423
:1007700082E13CC08B85833039F089E0440F551FFE
:10078000661F771F8A95D1F79A01AB0168E1CE0108
:100790000E94B502882311F084E028C08EEF0E94E9
:1007A0005D0287018EEFF81AF80181918F010E9496
:1007B0005D020E151F05C1F78FEF0E945D028FEFDE
:1007C0000E945D020E9464028A878F71853031F039
:1007D00081E18D83CE010E94520209C068E572E07A
:1007E000CE010E946702811107C085E18D83CE0191
:1007F0000E94520280E013C020E030E0A9016DE0C9
:10080000CE010E94B502811104C00E9464028823B7
:1008100011F084E1EBCFCE010E94520281E0DF9122
:10082000CF911F910F91FF90EF900895FC01DB0194
:1008300012968D919C911397938382838DE491E01E
:100840009183808314968C911497848315968C9150
:100850001597858316964D915D916D917C911997B1
:1008600046835783608771871A964D915D916D918C
:100870007C911D9742875387648775871E964D919B
:100880005D916D917C91519746875787608B718BF5
:1008900052968C915297828B53964D915D916D91AA
:1008A0007C915697438B548B658B768B57964D91E5
:1008B0005D916D917C915A97478B508F618F728FAC
:1008C0005B968D919C915C97948F838F0895CF93C5
:1008D000DF93EC01898D9A8D009741F00E942F17CC
:1008E000898D9A8D0E947E311A8E198EDF91CF915B
:1008F0000895EF92FF920F931F93CF93DF93EC0134
:100900007B018A011B821A8288EE93E0A0E0B0E0AE
:100910008C839D83AE83BF8387E791E0998388832F
:100920008DE190E00E94E9309A8F898F009779F0ED
:100930002DE1F701DC0101900D922A95E1F74CE0E1
:1009400050E0B801CE010C960E941633188EDF914C
:10095000CF911F910F91FF90EF9008952F923F92AA
:100960004F925F926F927F928F929F92AF92BF92BF
:10097000CF92DF92EF92FF920F931F93CF93DF936B
:1009800000D0CDB7DEB7FC018581882309F4D9C03A
:10099000848180FFD6C021E02A83438954896589F8
:1009A000768982859385A485B585481759076A0796
:1009B0007B0709F41A826F013A81832F90E0DE01F0
:1009C00011964D013F01B6E06B0E711C892B09F4A5
:1009D0007DC0D6011A964D915D916D917C911D97C8
:1009E0005A01B1E0BB22F60125811A012B0189E0F1
:1009F00056944794379427948A95D1F7838D948D94
:100A0000223061F4FC01828D938DA48DB58DBC01E3
:100A1000CD01620D731D841D951D45C0DC0114962A
:100A20001C9111501221A114B104D1F4111118C05C
:100A3000452B462B472B51F4F6018789908DA18DCC
:100A4000B28D86839783A087B1870AC0468157817C
:100A50006085718593010E949A10882309F471C002
:100A6000F601238D348D86819781A085B18502970B
:100A7000A109B109AC01BD01F901058404C0440F0D
:100A8000551F661F771F0A94D2F786859785A08920
:100A9000B189840F951FA61FB71FBC01CD01610F3F
:100AA000711D811D911DD60114962C9126FF14C035
:100AB0000091000110910101209102013091030188
:100AC000601771078207930751F506C0FA81FF236B
:100AD000C1F1898190E037C040E00E94B10F8823C6
:100AE00081F1F501EF5DFC4FD401CF010196E817CC
:100AF000F90719F021912D93FACFEFEF8E1A9E0A84
:100B0000F60182859385A485B5850196A11DB11D49
:100B100082879387A487B58780E090E057CF7401E0
:100B200001E010E09501AB01BC018091210590919D
:100B300022050E941703882321F0BFEF8B1A9B0A1E
:100B4000DFCF8FEF9FEF0F900F90DF91CF911F912D
:100B50000F91FF90EF90DF90CF90BF90AF909F905C
:100B60008F907F906F905F904F903F902F9008955F
:100B7000FC01818D928D009711F00C94AE048FEFE3
:100B80009FEF08950F931F93CF93DF93FC01818D07
:100B9000928D0097B9F0EF010E94AE048C010F3FD7
:100BA0008FEF180791F0898D9A8DFC01428553854E
:100BB0006485758541505109610971090E94391395
:100BC000C80105C080E090E002C08FEF9FEFDF9189
:100BD000CF911F910F9108951F920F920FB60F9210
:100BE00011242F933F934F935F936F937F938F9332
:100BF0009F93AF93BF93EF93FF938091B900887F4A
:100C0000803609F49CC068F5883209F45BC090F422
:100C1000803109F454C038F4882309F4F6C08830D0
:100C200009F44DC0F6C0883109F44CC0803209F493
:100C30005DC0EFC0803409F468C048F4803309F423
:100C400055C0883309F0E5C08093B902D8C080351B
:100C500009F44FC0883509F45DC0883409F0D9C063
:100C6000D6C0883909F4C7C0A8F4883709F467C02A
:100C700038F4883609F463C0803709F460C0C9C00D
:100C8000883809F4B8C0803909F45FC0803809F0A9
:100C9000C0C05BC0803B09F486C038F4803A09F4D8
:100CA00066C0883A09F47FC0B4C0803C09F4A7C08C
:100CB000883C09F4A4C0883B09F48AC0AAC080918A
:100CC000960210C09091B8028091B702981770F503
:100CD000E091B80281E08E0F8093B802F0E0E9560F
:100CE000FD4F80818093BB0085EC86C08093B90264
:100CF0008EC0E091B80281E08E0F8093B80280919F
:100D0000BB00F0E0E956FD4F80839091B8028091DE
:100D1000B7026EC0E091B80281E08E0F8093B802F6
:100D20008091BB00F0E0E956FD4F80838091BA02CC
:100D300081116DC081E08093950284EA61C083E0F7
:100D40008093BB0210929202CFCF809192028032A8
:100D500008F051C0E091920281E08E0F80939202E0
:100D60008091BB00F0E0EE58FD4F8083BDCF85EC55
:100D70008093BC001092BB0280919202803230F4CA
:100D8000E0919202F0E0EE58FD4F108260919202E5
:100D900070E0E0917002F091710282E792E00995B3
:100DA0001092920236C084E08093BB0210926F02D0
:100DB00010926E02E0916C02F0916D0209958091A3
:100DC0006E02811105C081E080936E0210924C0288
:100DD000E0916F0281E08E0F80936F02F0E0E45BA0
:100DE000FD4F80818093BB0090916F0280916E02D5
:100DF000981708F479CF85E88093BC000AC085EC89
:100E00008093BC001092BB0204C01092B9020E94F1
:100E10006701FF91EF91BF91AF919F918F917F916A
:100E20006F915F914F913F912F910F900FBE0F9057
:100E30001F9018951092BB0281E08093BA02109225
:100E4000950261E082E10E94E71861E083E10E947F
:100E5000E718E9EBF0E080818E7F808380818D7FD1
:100E6000808388E48093B80085E48093BC00089573
:100E70000F931F93CF93DF93EC018885811108C0F6
:100E80000E94EC19688379838A839B8381E0888739
:100E90000E94EC196C837D838E839F830881198166
:100EA0002A813B81601B710B820B930B28EE33E090
:100EB00040E050E00E948630C901DF91CF911F9140
:100EC0000F910895CF93DF93CDB7DEB762970FB63A
:100ED000F894DEBF0FBECDBF409140065091410651
:100EE000609142067091430622E0CE0101960E9475
:100EF000601E8D819E810897B0F460E2CE01079656
:100F00000E94BC1EBE016F5F7F4FCE0107960E94FC
:100F1000F91DBC01CE0101960E94441ECE01079628
:100F20000E945B1EE6CFBE016F5F7F4FCE0107962A
:100F30000E94D41E65E2CE0107960E94DB1DBC0113
:100F4000CE0101960E94441ECE0107960E945B1EB0
:100F50000E94D10D80E00E949C0D6FE172E0CE01F5
:100F600007960E942E1FBE016F5F7F4FCE0107962E
:100F70000E94F91DBC01CE010D960E94D41ECE0127
:100F80000D960E94830DCE010D960E945B1ECE0130
:100F900007960E945B1E81E00E949C0D67E272E052
:100FA000CE0107960E942E1FCE0107960E94830D48
:100FB000CE0107960E945B1ECE0101960E945B1E29
:100FC00062960FB6F894DEBF0FBECDBFDF91CF9112
:100FD0000895CF93DF93EB012A813B81FC0133839A
:100FE00022834C815D816E817F814483558366833A
:100FF0007783488559856A857B85408751876287D5
:1010000073872DE0FE013C96DC011C9601900D9249
:101010002A95E1F7298D3A8DFC01328F218FDF91DE
:10102000CF910895FF920F931F93CF93DF93CDB786
:10103000DEB7AD970FB6F894DEBF0FBECDBF61E44B
:1010400072E0CE0182960E942E1F61E472E0CE0112
:101050004C960E942E1F0E94FA0867EA71E0CE01AA
:1010600088960E942E1FBE01685D7F4FCE010196BB
:101070000E94DD1EBE016F5F7F4F88E696E00E94F2
:10108000E907CE0188960E945B1E88E696E00E94E2
:101090003001892B71F0CE0101960E94F70DBE013F
:1010A0006F5F7F4FCE0182960E94901DCE01019608
:1010B000EACF88E696E00E9467041092230600E0DB
:1010C00010E0B801CE0182960E94501DFC01808183
:1010D0008C3241F00F5F1F4F8BE196E00E94380782
:1010E00003977CF30F5F1F4F8EA19FA1081719076D
:1010F000E8F4B801CE0182960E94501DFC01F080F8
:10110000BE01645E7F4FCE0101960E94D41E6F2DFA
:10111000CE0101960E94DB1DBC01CE014C960E94BF
:10112000441ECE0101960E945B1EDCCF8C8D9D8DEE
:10113000009719F00E94802903C060E070E0CB01A5
:101140000E94E72D60933C0670933D0680933E0617
:1011500090933F060E947A20CE014C960E945B1E1F
:10116000CE0182960E945B1EAD960FB6F894DEBF4C
:101170000FBECDBFDF91CF911F910F91FF900895CA
:101180000F931F930E94EC19609370067093710681
:101190008093720690937306E0916806F091690659
:1011A0000284F385E02D88E696E0099597FF1FC03D
:1011B0000E94EC1900917006109171062091720640
:1011C00030917306DC01CB01801B910BA20BB30B9A
:1011D00000916C0610916D0620916E0630916F069D
:1011E00080179107A207B307B8F28FEF9FEF1F9107
:1011F0000F9108958F929F92AF92BF92CF92DF92FC
:10120000EF92FF92CF93809165061092D1051092D4
:10121000CF051092CC051092CB058093CA050E9491
:10122000EC196B017C0161E08091CA050E941719DD
:1012300061E08091CA050E94E718CFB7F8948091C9
:10124000E602811127C0E5ECF1E08491E1EBF1E0E9
:101250009491E82FF0E0EE0FFF1FE356FE4FA591AB
:10126000B491EC91E92321F461E08AE00E94E7184F
:1012700061E08AE00E9417198CB580618CBD8CB545
:1012800080648CBD61E08DE00E94171961E08BE005
:101290000E9417198091E6028F5F8093E602CFBF0C
:1012A00082E58093C4051092C5058091C405909194
:1012B000C5050E949C02CAE08FEF0E945D02C150EA
:1012C000D9F786EC95E00E949F0220E030E0A9016A
:1012D00060E086EC95E00E94B502C82F8093D005AF
:1012E000813049F00E94EC196C197D09613D77400D
:1012F00060F381E054C02AEA31E040E050E068E069
:1013000086EC95E00E94B50282FF03C0C093D10530
:101310000EC0C4E00E9464028093D005C150D1F792
:101320008A3A11F082E03BC082E08093D10580913F
:10133000D105823021F0812C912C540105C0812CE3
:10134000912CA12C30E4B32E20E030E0A90167E31A
:1013500086EC95E00E94B502A501940169E286EC55
:1013600095E00E94B5028093D005882349F00E9441
:10137000EC196C197D09613D774030F388E00FC0AE
:101380008091D105823041F520E030E0A9016AE387
:1013900086EC95E00E94B502882381F086E0809378
:1013A000CB0586EC95E0CF91FF90EF90DF90CF904A
:1013B000BF90AF909F908F900C9452020E94640255
:1013C000807C803C19F483E08093D1050E94640204
:1013D0000E9464020E94640286EC95E00E94520220
:1013E00080E58093C4051092C50581E00E94F3203A
:1013F000882329F08091F505882341F06CC080E0B6
:101400000E94F320882309F466C0F4CF8091E90597
:10141000803109F582E08093F5051092070610925D
:1014200008061092090610920A068091EA0590912A
:10143000EB05A0E0B0E025E0880F991FAA1FBB1FB5
:101440002A95D1F78093030690930406A09305068E
:10145000B09306061DC08032F1F583E08093F50558
:101460004091EC055091ED056091EE057091EF050E
:1014700040930706509308066093090670930A0686
:1014800023E036E082ED95E00E941E11882319F1D9
:1014900082ED95E090930C0680930B0681E080939B
:1014A000F4051092F6051092F7051092F8051092C7
:1014B000F9051092FA051092FB051092FC051092A6
:1014C000FD051092FE051092FF0510920006109285
:1014D000010610920206CF91FF90EF90DF90CF901F
:1014E000BF90AF909F908F9008958F929F92AF92F0
:1014F000BF92CF92DF92EF92FF920F931F93CF9301
:10150000DF9300D000D0CDB7DEB7FC0185818130FC
:1015100079F5948191FF2CC0438954896589768936
:10152000452B462B472B09F45CC07F0140E050E07F
:10153000BA01CF010E9439138823D1F0F7018788BF
:10154000908CA18CB28CC38CD48C82E090E0A0E013
:10155000B0E0F60180839183A283B3839E012F5F65
:101560003F4FB501A401C6010E949A10811102C02B
:1015700080E037C000E010E09801B501A401C60189
:101580000E94FA0F8823A1F389809A80AB80BC80E7
:10159000F6018789803129F088EF9FEFAFEFBFE038
:1015A00004C088EF9FEFA0E0B0E088169906AA0675
:1015B000BB06A0F2F701178A108E118E128E138AC5
:1015C000148A158A168A848180688483C7010E94E0
:1015D000FB12882369F240E050E0BA01C7010E9483
:1015E00039130F900F900F900F90DF91CF911F91B3
:1015F0000F91FF90EF90DF90CF90BF90AF909F90B2
:101600008F9008952F923F924F925F926F927F92A8
:101610008F929F92AF92BF92CF92DF92EF92FF9202
:101620000F931F93CF93DF93CDB7DEB7C756D10982
:101630000FB6F894DEBF0FBECDBF5C014B01A6967E
:101640004FAFA6973E018EE1680E711C60EF75E00A
:10165000C3010E9416041C821B828DE491E09A83D0
:1016600089831E827401FE0131966F0123011F01DF
:101670006FE270E0C7010E94FB320097F1F1F701C1
:1016800020812F3221F4FFEFEF1AFF0AF1CF8E19DC
:101690008D3008F08CE0082F10E0A801B701CE01D2
:1016A000885A9F4F0E941633E8E5F0E0EC0FFD1FCB
:1016B000E00FF11F1082C6010E942F1721E0AE013A
:1016C000485A5F4FB201C6010E94701581110AC0CD
:1016D0001EAE1DAE8DE491E09CAF8BAF21961FAE88
:1016E000219717C0E00EF11EC2010E942F17942D02
:1016F000852D2601C92ED82EBBCFC701881999097F
:10170000A8969FAF8EAFA897B201CE01CB960E944C
:101710001604A896EEADFFADA8978E0E9F1EF4019D
:101720008081811109C0BE01655C7F4FC1010E94AB
:10173000160448E352E04BC019A218A28DE491E0D0
:101740009F8F8E8F1BA221968FAD2197811113C081
:10175000F5011382128288EE93E0A0E0B0E084836A
:101760009583A683B78387E791E091838083128E68
:10177000118E148630C08250A6962FADA697A40174
:10178000823040F460EF75E0C3010E947015811152
:101790000DC0DECFBE01655C7F4FC3010E94701596
:1017A0008823B1F2CE01CB960E942F17A6968FAD5B
:1017B000A697867039F049A95AA96BA97CA9C301DB
:1017C0000E943913B301C1010E941604A401B101A2
:1017D000C5010E947904C501C959DF4F0FB6F894BD
:1017E000DEBF0FBECDBFDF91CF911F910F91FF9054
:1017F000EF90DF90CF90BF90AF909F908F907F90B1
:101800006F905F904F903F902F900895CF93DF930C
:10181000EC0144E050E06AE372E00E94621D811135
:1018200003C0CE010E94C91DCE01DF91CF91089562
:10183000CF92DF92EF92FF920F931F93CF93DF939C
:10184000CDB7DEB7A1970FB6F894DEBF0FBECDBF00
:101850007B016A01BC01CE014C960E94D41ECE01D0
:101860004C960E94060CFC016081718143E18E015F
:101870000F5F1F4FC8010E94020BB80180916606DE
:10188000909167060E94E907CE014C960E945B1E6C
:101890008091660690916706892B91F1B701CE0180
:1018A0004C960E94D41E6CE2CE014C960E94DB1D29
:1018B0007C014AE0B801C6010E94B229F8010190FA
:1018C0000020E9F73197AF01401B510BB801C70168
:1018D0000E94621D811103C0C7010E94C91DB7018A
:1018E00080916606909167060E94431FCE014C9638
:1018F0000E945B1E80916606909167060E946704B5
:10190000A1960FB6F894DEBF0FBECDBFDF91CF9189
:101910001F910F91FF90EF90DF90CF900895CF929D
:10192000DF92EF92FF92CF93DF93CDB7DEB762974E
:101930000FB6F894DEBF0FBECDBF0E94D21A0E9430
:10194000821B6091E00270E04AE0CE010D960E9499
:10195000901E0E94D21A0E94821B8091E00290E0A9
:101960000A97ACF460E3CE0101960E94BC1EBE0152
:10197000635F7F4FCE0101960E94F91DBC01CE012D
:101980000D960E94441ECE0101960E945B1E0E948D
:10199000D21A0E94821B6091DF0270E04AE0CE0101
:1019A00007960E94901E0E94D21A0E94821B80916C
:1019B000DF0290E00A97ACF460E3CE0101960E944A
:1019C000BC1EBE01695F7F4FCE0101960E94F91DCA
:1019D000BC01CE0107960E94441ECE0101960E94D2
:1019E0005B1EBE01635F7F4FCE0101960E94D41E35
:1019F000BE01695F7F4FCE0101960E94F91DFC0177
:101A000080819181009729F00E9480296B017C01DF
:101A100003C0C12CD12C7601CE0101960E945B1E21
:101A2000CE0107960E945B1ECE010D960E945B1EA2
:101A3000C60162960FB6F894DEBF0FBECDBFDF9130
:101A4000CF91FF90EF90DF90CF900895382F2091A5
:101A5000C0059091DD02213208F049C08091BB029F
:101A60008111FCCF42E04093BB023093BA023FEFBA
:101A70003093B9021092B8022093B702ADEBB2E0F6
:101A800047E952E0FA013E2F341B321718F43D911A
:101A90003193F9CF1092960220919602990F922BD2
:101AA0009093960290919502913061F41092950274
:101AB000909196029093BB009091BC0093FDF8CF5B
:101AC00095EC01C095EE9093BC009091BB029230D2
:101AD000E1F39091B9029F3F79F08091B902803291
:101AE00041F08091B902803331F084E005C081E09B
:101AF00003C082E001C083E01092C1051092C005CE
:101B00001092BC020895CF93DF93BC0180E596E06C
:101B10000E94441EEBE4F6E080819181EC01A881F3
:101B2000B98141855285658176811296ED91FC914E
:101B30001397DF91CF910994CF93DF93CDB7DEB7A1
:101B400028970FB6F894DEBF0FBECDBF10924E0699
:101B500080934F0620914B0630914C0698E0E2E2CC
:101B6000F1E0DE01119601900D929A95E1F7F901ED
:101B70009185981710F48FEF890FFE013196E80FC9
:101B8000F11DE80FF11D6081606840E0C9012896F1
:101B90000FB6F894DEBF0FBECDBFDF91CF910C948E
:101BA000A21C40E061E080914B0690914C060E949F
:101BB000A21C8BE39FE10197F1F7089581E08093E8
:101BC000570660914D066F3F89F070E08091560690
:101BD0000E94531962E070E080E090E00E94B21928
:101BE00080914D068F5F80934D06EBCF08950F9344
:101BF0001F93CF93DF9300D0CDB7DEB78C0161E4A4
:101C000072E00E942E1F0E94C00897FD0EC08A300D
:101C1000910559F089831A8241E050E0BE016F5F5F
:101C20007F4FC8010E94621DEECFC8010F900F9038
:101C3000DF91CF911F910F910895982F92959F70EA
:101C40002AEF929F800D112408954F925F926F9218
:101C50007F928F929F92AF92BF92CF92DF92EF923C
:101C6000FF920F931F93CF93DF9381E08093BC0289
:101C700088E68093DD021092C1051092C00560E0F5
:101C80008FE096E00E94F50181E00E94260D8823F6
:101C900031F080930C0360E070E0CB0116C18091BD
:101CA000BB028111FCCF81E08093BB028093BA021A
:101CB0009FEF9093B9021092B80296E09093B7020A
:101CC0008093960280919602806D80939602809117
:101CD0009502813061F41092950280919602809372
:101CE000BB008091BC0083FDF8CF85EC01C085EE80
:101CF0008093BC008091BB028130E1F38091B802F7
:101D0000873018F48091B80201C087E0A7E9B2E0FB
:101D100027EE32E0F9019E2F921B981718F49D913F
:101D20009193F9CF1092C3058093C2058FE096E09E
:101D30000E94A9018F770E941D0E582E8FE096E019
:101D40000E94A9010E941D0E682E8FE096E00E945D
:101D5000A9018F7B0E941D0E782E8FE096E00E94D5
:101D6000A9018FE096E00E94A9010E941D0E482E55
:101D70008FE096E00E94A9018F770E941D0E082F28
:101D80008FE096E00E94A9010E941D0EEEE1E80F8F
:101D9000AE2FB0E020E833E341EE51E00E94072F80
:101DA0004B015C0122EB37E0FD01C4E6D0E080E9A5
:101DB000E82EFF24F394C901825B97408E179F079A
:101DC000DCF4C90183709927892B99F4C901BE01FC
:101DD0000E947230892B31F4C901B7010E94723020
:101DE000892B39F480E8880E81E5981E81E0A81ED1
:101DF000B11C2F5F3F4FDFCFEE54F84FCF0164E6A9
:101E000070E00E9472307C01CF0160E971E00E94B5
:101E100072306C01C1E0D0E010E0E370FF27C01722
:101E2000D10724F5C230D10581F4309771F4E11463
:101E3000F10419F4C114D10441F480E8880E8BE355
:101E4000981E86E2A81EB11C0FC0DE01A65DBE4F23
:101E5000AC91B0E020E831E541E050E00E94072F6E
:101E6000860E971EA81EB91E2196D9CF272D30E0C9
:101E7000A0E1BEE00E94492F6B017C01262D30E0DD
:101E8000ACE3B0E00E94492FDC01CB018C0D9D1D1D
:101E9000AE1DBF1D6C017D01C50CD11CE11CF11CE8
:101EA000A42DB0E0119720E831E541E050E00E9418
:101EB000C730DC01CB018C0D9D1DAE1DBF1DBC01CB
:101EC000CD01680D791D8A1D9B1DDF91CF911F915A
:101ED0000F91FF90EF90DF90CF90BF90AF909F90C9
:101EE0008F907F906F905F904F900895809107033F
:101EF0008823A9F1409100015091010160910201F4
:101F00007091030121E233E0809121059091220537
:101F10000E94AB03811102C080E008954091080344
:101F20005091090360910A0370910B03411551050B
:101F30006105710591F021E233E0809121059091D6
:101F400022050E94AB03882339F3109208031092F4
:101F5000090310920A0310920B031092070381E009
:101F600008958F929F92AF92BF92EF92FF920F933C
:101F70001F93CF934B015C01C42F8091000190917E
:101F80000101A0910201B091030188159905AA05EC
:101F9000BB0501F10E94760F811102C080E020C0D4
:101FA00081E2E82E83E0F82E00E012E020E030E04D
:101FB000B501A40180912105909122050E9417038B
:101FC000882361F38092000190920101A0920201A6
:101FD000B092030180910703C82BC093070381E0EF
:101FE000CF911F910F91FF90EF90BF90AF909F9076
:101FF0008F9008954F925F926F927F928F929F92EF
:10200000AF92BF92CF92DF92EF92FF920F931F9306
:10201000CF93DF93EC016A017B0128013901423043
:1020200051056105710510F480E073C089859A85BA
:10203000AB85BC850196A11DB11D84179507A60728
:10204000B70790F38B889C88AD88BE888F898031D4
:1020500029F4BB27AF2D9E2D8D2D09C0DB01CA01B0
:1020600047E0B695A795979587954A95D1F7880E3D
:10207000991EAA1EBB1E8091000190910101A091A2
:102080000201B091030188169906AA06BB0679F4ED
:102090008F898031A1F4DD24EE24FF24C601880F4E
:1020A000991FFC01EF5DFC4F5182408219C040E056
:1020B000C501B4010E94B10F8111EACFB5CFE894F8
:1020C000C7F8DD24EE24FF24C601880F991F880F6E
:1020D000991FFC01EF5DFC4F408251826282738246
:1020E000809107038160809307038A89823080F0A2
:1020F0008D819E81AF81B885880E991EAA1EBB1E58
:102100008092080390920903A0920A03B0920B03F5
:1021100081E0DF91CF911F910F91FF90EF90DF90C1
:10212000CF90BF90AF909F908F907F906F905F9077
:102130004F9008958F929F92AF92BF92CF92DF926D
:10214000EF92FF920F931F93CF93DF93FC01818552
:102150009285A385B4850196A11DB11D84179507AD
:10216000A607B70710F480E05CC083899489A5892D
:10217000B689C789C03129F4852E962EA72EBB2497
:1021800009C04A015B01C7E0B694A794979487946D
:10219000CA95D1F7E9016A017B018F01BC01CD012C
:1021A000680D791D8A1D9B1D809000019090010192
:1021B000A0900201B0900301681579058A059B057E
:1021C00099F4F80187898031A9F4B701A601552750
:1021D00066277727440F551FFA01EF5DFC4F80817A
:1021E0009181A0E0B0E018C040E00E94B10F8111E1
:1021F000E8CFB9CFB701A6014F77552766277727D4
:10220000440F551F440F551FFA01EF5DFC4F8081AD
:102210009181A281B381BF7088839983AA83BB8394
:1022200081E0DF91CF911F910F91FF90EF90DF90B0
:10223000CF90BF90AF909F908F9008954F925F92F4
:102240006F927F92AF92BF92CF92DF92EF92FF9206
:102250000F931F93CF93DF9300D000D0CDB7DEB79D
:102260008C0149835A836B837C835901C12CD12C07
:102270007601412C82E0582E612C712C49815A81C3
:102280006B817C819E012F5F3F4FC8010E949A1095
:10229000882351F1D301C201F801058404C0880FDD
:1022A000991FAA1FBB1F0A94D2F7C80ED91EEA1E97
:1022B000FB1E49815A816B817C818789803129F09D
:1022C00088EF9FEFAFEFBFE004C088EF9FEFA0E083
:1022D000B0E0481759076A077B0780F2F501C08212
:1022E000D182E282F38281E00F900F900F900F90E5
:1022F000DF91CF911F910F91FF90EF90DF90CF90E2
:10230000BF90AF907F906F905F904F9008951F9314
:10231000CF93DF93EC0180E2689FF00111249F01CD
:102320002F5D3C4FD9011B969C91917129F0842F10
:10233000827411F080E058C0142F6A8B80910001E4
:1023400090910101A0910201B09103018E879F87B6
:10235000A88BB98BEF5DFC4F4489558960E070E034
:10236000BA01552744274F8B588F698F7A8F828DFA
:10237000938DA0E0B0E0482B592B6A2B7B2B4F8B21
:10238000588F698F7A8FD9011B968C91887151F47F
:10239000848D958DA68DB78D8B8B9C8BAD8BBE8BD5
:1023A00081E00DC0803131F69E012D5E3F4F8B8D57
:1023B0009C8D0E941E11882309F4BCCF84E08D837C
:1023C000812F8F708C831E821F82188619861A8631
:1023D0001B861C861D8616FF06C0CE01DF91CF919D
:1023E0001F910C94750A81E0DF91CF911F910895A0
:1023F0003F924F925F926F927F928F929F92AF9295
:10240000BF92CF92DF92EF92FF920F931F93CF93E1
:10241000DF93CDB7DEB72C970FB6F894DEBF0FBEB3
:10242000CDBF5C01DC015B968D909C905C9716960D
:10243000CD90DD90ED90FC901997C114D104E1048A
:10244000F10439F0BFEFCB1ADB0AEB0AFB0A312C9F
:1024500007C0F401C080D180E280F380332433943C
:10246000F40181859285A385B4859C01AD012F5F20
:102470003F4F4F4F5F4F29873A874B875C87260135
:1024800037011D821E821F821886F4018185928584
:10249000A385B4852D813E814F8158852817390742
:1024A0004A075B0708F063C089859A85AB85BC85C0
:1024B0008C159D05AE05BF0550F482E0C82ED12CC9
:1024C000E12CF12C92E0492E512C612C712C9E01B3
:1024D0002F5F3F4FB701A601C4010E949A108823C5
:1024E00009F445C089819A81AB81BC81892B8A2BF3
:1024F0008B2B41F0260137019FEF491A590A690ACF
:10250000790A05C0C414D504E604F70491F02D81BE
:102510003E814F8158852F5F3F4F4F4F5F4F2D8337
:102520003E834F8358873FEFC31AD30AE30AF30A67
:10253000ACCF0FEF1FEF2FEF3FE0B301A201C401BB
:102540000E94FA0F882399F0D50116964D915D915E
:102550006D917C911997411551056105710549F0FF
:1025600093018201C4010E94FA0F811102C080E030
:102570002AC0D50116964D925D926D927C92199764
:10258000332051F0D301C2010196A11DB11DF40108
:1025900080839183A283B383F5018789908DA18D78
:1025A000B28D892B8A2B8B2B69F4D50157964D92CE
:1025B0005D926D927C925A9714968C9114978068D4
:1025C00014968C9381E02C960FB6F894DEBF0FBE64
:1025D000CDBFDF91CF911F910F91FF90EF90DF90D2
:1025E000CF90BF90AF909F908F907F906F905F90B3
:1025F0004F903F900895CF93DF93EC018D81882316
:10260000A1F18C8187FF2DC06E857F85888999898E
:1026100041E00E94B10F882341F1EA8980E2E89FFE
:10262000F0011124DF01AF5DBC4F1097F1F08D81F7
:10263000823050F44B895C896D897E895C964D931C
:102640005D936D937C935F978F89988DA98DBA8DDB
:10265000EF5DFC4F938F828FB58BA48B8C818F772E
:102660008C83DF91CF910C94760F80E0DF91CF9136
:1026700008958F929F92AF92BF92CF92DF92EF9286
:10268000FF920F931F93CF93DF93EC018D81811104
:1026900002C080E077C00B891C892D893E89041710
:1026A000150726073707A8F36A017B01823029F452
:1026B000CA86DB86EC86FD860DC0C114D104E10418
:1026C000F10451F41E821F82188619861A861B8611
:1026D0001C861D8681E056C08A849B84AC84BD84A0
:1026E000EB8DFC8D258530E0275F3F4FB501A401C0
:1026F0004150510961097109022E04C07695679510
:10270000579547950A94D2F7D701C6010197A109B9
:10271000B10904C0B695A795979587952A95D2F7E4
:1027200084179507A607B70720F089288A288B28E1
:1027300049F44F89588D698D7A8D4E835F83688700
:10274000798704C0841B950BA60BB70B4C015D0168
:102750008E010A5F1F4F81149104A104B10409F492
:10276000A7CF4E815F816885798598018B8D9C8D7F
:102770000E949A1091E0891A9108A108B10881116C
:10278000EACF87CFDF91CF911F910F91FF90EF900C
:10279000DF90CF90BF90AF909F908F9008952F9231
:1027A0003F924F925F926F927F928F929F92AF92E1
:1027B000BF92CF92DF92EF92FF920F931F93CF932E
:1027C000DF9300D000D0CDB7DEB78C015B011A01DA
:1027D000DC0115968C9115978130C9F414968C9173
:1027E00081FF15C082FF1BC0F801438954896589A8
:1027F000768982859385A485B58584179507A60774
:10280000B70769F0C8010E943913811108C081E03F
:1028100090E0F8019383828380E090E039C1610108
:1028200083C0D8015B968D919C915C97FC012481BB
:1028300021502A013B0139E07694679457944794DC
:102840003A95D1F7722E74207A01F1E0FF227720B9
:1028500009F476C080E092E08E199F0946018C153C
:102860009D0508F44C01D8015B962D913C915C9735
:1028700016968D919D910D90BC91A02D0297A10966
:10288000B109F901058404C0880F991FAA1FBB1F55
:102890000A94D2F74685578560897189840F951F00
:1028A000A61FB71F9C01AD01270D311D411D511DF4
:1028B00029013A01811432E0930609F088C0809121
:1028C000000190910101A0910201B09103018415D2
:1028D0009505A605B70559F48FEF9FEFDC018093AE
:1028E000000190930101A0930201B09303019501AF
:1028F000B301A20180912105909122050E94AB03B2
:10290000882309F484CF9EEFB91AC818D908F801B2
:1029100082859385A485B585880D991DA11DB11D5E
:1029200082879387A487B587D8011A964D915D91C8
:102930006D917C911D97C114D10409F072CF87C0AD
:10294000E114F10409F086CF16964D915D916D91D9
:102950007C911997411551056105710559F45796F8
:102960008D919D910D90BC91A02D0097A105B10571
:1029700041F521C09E012F5F3F4F0E949A1088238E
:1029800009F44BCF89819A81AB81BC81F801238DF9
:10299000348DF9012789203129F048EF5FEF6FEF7F
:1029A0007FE004C048EF5FEF60E070E084179507B8
:1029B000A607B70730F0C8010E94F81181114ACF6D
:1029C00026CFF80186839783A087B18743CFE11490
:1029D000F10429F5D8011A964D915D916D917C9184
:1029E0001D9753968D919D910D90BC91A02D4817E8
:1029F00059076A077B0798F00E94760F882309F42D
:102A000006CF409200015092010160920201709243
:102A100003018091070381608093070308C041E0B0
:102A2000C301B2010E94B10F882309F4F0CED50191
:102A3000F701EF5DFC4FCF01880D991DE817F907ED
:102A400019F02D912193FACFA80CB91C5ECF5396A3
:102A50008D919D910D90BC91A02D84179507A6078F
:102A6000B70740F4F801438B548B658B768B8481D8
:102A700080688483D80114968C9183FD02C0C101C3
:102A800007C0C8010E94FB12882309F4C0CEF7CF0B
:102A90000F900F900F900F90DF91CF911F910F919A
:102AA000FF90EF90DF90CF90BF90AF909F908F906E
:102AB0007F906F905F904F903F902F900895CF93AD
:102AC000DF931F92CDB7DEB7698341E050E0BE01CE
:102AD0006F5F7F4F0E94CF130F90DF91CF910895CA
:102AE0004F925F926F927F929F92AF92BF92CF92DE
:102AF000DF92EF92FF920F931F93CF93DF93CDB7A7
:102B0000DEB72B970FB6F894DEBF0FBECDBF7C01AA
:102B1000DC011596AC90A1108AC1FE0131966F01BF
:102B200090E28BE08E0F91938E13FDCFDA0130E0AF
:102B300087E09D91992339F19E3219F0EFECF1E095
:102B40000AC08A3009F474C138E08AE0F2CF3196C5
:102B5000491709F46DC144914111F9CF831708F465
:102B600067C14FED490F4E3508F062C141E0430F98
:102B7000F601E30FF11D3FE9390F3A3108F49052A5
:102B80009083342FD6CF8981803209F451C1B22E7F
:102B90008B01DB015B968D919C915C97F701948F83
:102BA000838F16961D921D921D921C921997FB0100
:102BB0001286138614861586712CF80182859385FA
:102BC000A485B585438954896589768984179507D5
:102BD000A607B70708F061C025E0B695A7959795B9
:102BE00087952A95D1F7F82FFF706F2ED80115968B
:102BF0008C91823008F41CC1C8010E94AE0497FD7C
:102C000017C1F80182859385A485B5854F96A11DCE
:102C1000B11D82879387A487B587F0E26F9EC001BC
:102C20001124BC016F5D7C4F6115710509F400C171
:102C3000DB012C91222319F0253EC1F427C071102D
:102C40000EC0F701628A409100015091010160912C
:102C500002017091030146875787608B718BFC01DD
:102C6000EF5DFC4F8081811113C015C04BE050E037
:102C7000C6010E94E532892B09F09FCF8B2D80730E
:102C8000803309F4D5C04B2D662DCCC07720C9F216
:102C90007724739492CF772473948B2D8271823131
:102CA00009F0C6C07720D1F0D7011E966D917D91B5
:102CB0008D919C91519741E00E94B10F882309F4B6
:102CC000B7C0F7016289F0E26F9FB00111246F5D18
:102CD0007C4F6115710509F079C0AAC0D80115961D
:102CE0008C91823009F4A4C0C8010E94F811882395
:102CF00009F49EC0D8015B96ED91FC915C97169605
:102D00004D905D906D907C901997B2E04B1A5108F0
:102D100061087108058404C0440C551C661C771CAE
:102D20000A94D2F786859785A089B189480E591EE5
:102D30006A1E7B1E9480E1E04E1A510861087108FA
:102D4000992009F10E94760F882309F471C0E1E20D
:102D5000F3E0119225E0E132F207D9F7D301C20185
:102D6000890D911DA11DB11D80930001909301015A
:102D7000A0930201B09303018091070381608093C7
:102D800007039A94DDCFD8015B96ED91FC915C9797
:102D900080E092E0A0E0B0E0058404C0880F991FB5
:102DA000AA1FBB1F0A94D2F7F80143895489658989
:102DB0007689840F951FA61FB71F838B948BA58BD5
:102DC000B68BD70152961C9261E273E080E2FB0160
:102DD00011928A95E9F78BE0F601DB0101900D92E3
:102DE0008A95E1F781E298E2DB0151969C938E93FC
:102DF000509720E038E01F963C932E931E975396F1
:102E00009C938E93529759969C938E93589757966E
:102E10003C932E9356970E94760F882349F04B2DB2
:102E2000F7016289C7010E948711A82E01C0A12C59
:102E30008A2D2B960FB6F894DEBF0FBECDBFDF9163
:102E4000CF911F910F91FF90EF90DF90CF90BF90A7
:102E5000AF909F907F906F905F904F900895CF9329
:102E6000DF93EC010E94FB12882311F01D8281E0A8
:102E7000DF91CF910895FC01538D448D252F30E0D3
:102E8000842F90E0821B930B541710F0CF96089577
:102E900001970895FC01918D828D981761F0828DC4
:102EA000DF01A80FB11D5D968C91928D9F5F9F737E
:102EB000928F90E008958FEF9FEF0895FC01918D20
:102EC000828D981731F0828DE80FF11D858D90E08D
:102ED00008958FEF9FEF0895FC01918D228D892F2A
:102EE00090E0805C9F4F821B91098F739927089512
:102EF00083E295E00E946C1721E0892B09F420E021
:102F0000822F0895FC01848DDF01A80FB11DA35A03
:102F1000BF4F2C91848D90E001968F739927848FF9
:102F2000A689B7892C93A089B1898C9180648C93F0
:102F3000938D848D981306C00288F389E02D8081DB
:102F40008F7D80830895EF92FF920F931F93CF930D
:102F5000DF93EC0181E0888F9B8D8C8D981305C0E9
:102F6000E889F989808185FD24C0F62E0B8D10E05B
:102F70000F5F1F4F0F731127E02E8C8DE8120CC0CE
:102F80000FB607FCFACFE889F989808185FFF5CF74
:102F9000CE010E948217F1CF8B8DFE01E80FF11D4B
:102FA000E35AFF4FF0820B8FEA89FB8980818062B0
:102FB00007C0EE89FF896083E889F9898081806490
:102FC000808381E090E0DF91CF911F910F91FF907E
:102FD000EF900895CF93DF93EC01888D8823C9F09B
:102FE000EA89FB89808185FD05C0A889B9898C9112
:102FF00086FD0FC00FB607FCF5CF808185FFF2CFAD
:10300000A889B9898C9185FFEDCFCE010E948217E6
:10301000E7CFDF91CF91089580E090E0892B29F0F0
:103020000E94781781110C9400000895833081F07C
:1030300028F4813099F08230A1F008958730A9F00A
:103040008830B9F08430D1F4809180008F7D03C046
:10305000809180008F7780938000089584B58F776A
:1030600002C084B58F7D84BD08958091B0008F77B4
:1030700003C08091B0008F7D8093B00008953FB76A
:10308000F89480911C0390911D03A0911E03B091B0
:103090001F0326B5A89B05C02F3F19F00196A11D5F
:1030A000B11D3FBFBA2FA92F982F8827820F911DDE
:1030B000A11DB11DBC01CD0142E0660F771F881F25
:1030C000991F4A95D1F708950E94E0321F920F92FE
:1030D0000FB60F9211242F933F934F935F936F93EB
:1030E0007F938F939F93AF93BF93EF93FF9383E26D
:1030F00095E00E948217FF91EF91BF91AF919F9150
:103100008F917F916F915F914F913F912F910F9090
:103110000FBE0F901F9018951F920F920FB60F922F
:1031200011242F938F939F93EF93FF93E091330597
:10313000F09134058081E0913905F0913A0582FDE6
:1031400012C0908180913C058F5F8F7320913D0567
:10315000821751F0E0913C05F0E0ED5DFA4F958F5C
:1031600080933C0501C08081FF91EF919F918F91E9
:103170002F910F900FBE0F901F901895CF93DF9354
:10318000282F30E0F901ED50FE4F8491F901E95507
:10319000FE4FD491F901E554FE4FC491CC2391F038
:1031A00081110E941618EC2FF0E0EE0FFF1FE7517F
:1031B000FE4FA591B491EC91ED2381E090E021F4D4
:1031C00080E002C080E090E0DF91CF9108951F93EE
:1031D000CF93DF93282F30E0F901ED50FE4F84911B
:1031E000F901E955FE4FD491F901E554FE4FC49120
:1031F000CC23C9F0162F81110E941618EC2FF0E095
:10320000EE0FFF1FE152FE4FA591B4918FB7F894D6
:10321000111105C09C91ED2FE095E92302C0EC91BE
:10322000ED2BEC938FBFDF91CF911F910895CF933A
:10323000DF9390E0FC01E955FE4F2491FC01E55439
:10324000FE4F8491882361F190E0880F991FFC0163
:10325000E356FE4FC591D491FC01E152FE4FA5917A
:10326000B491611109C09FB7F89488812095822399
:103270008883EC912E230BC0623061F49FB7F894E1
:103280003881822F809583238883EC912E2B2C9379
:103290009FBF06C08FB7F894E8812E2B28838FBF7D
:1032A000DF91CF9108951F93CF93DF93182FEB01F8
:1032B00061E00E941719209711F460E004C0CF3F2D
:1032C000D10539F461E0812FDF91CF911F910C94EA
:1032D000E718E12FF0E0ED50FE4FE491E330F9F014
:1032E00048F4E130B9F0E230A1F584B5806284BDE4
:1032F000C8BD34C0E730E9F0E83019F1E43049F5F1
:1033000080918000806280938000D0938B00C09376
:103310008A0024C084B5806884BDC7BD1FC0809169
:103320008000806880938000D0938900C0938800DB
:1033300015C08091B00080688093B000C093B30046
:103340000DC08091B00080628093B000C093B40043
:1033500005C0C038D1050CF0B5CFAFCFDF91CF910C
:103360001F9108958F929F92AF92BF92CF92DF925A
:10337000EF92FF926B017C010E943F184B015C01B0
:10338000C114D104E104F104F1F00E943F18DC0102
:10339000CB0188199909AA09BB09883E9340A10568
:1033A000B10570F321E0C21AD108E108F10888EEF6
:1033B000880E83E0981EA11CB11CC114D104E10445
:1033C000F10419F7DDCFFF90EF90DF90CF90BF9021
:1033D000AF909F908F9008952FB7F8946091180345
:1033E0007091190380911A0390911B032FBF0895C8
:1033F0001F920F920FB60F9211242F933F938F932A
:103400009F93AF93BF938091180390911903A0915C
:103410001A03B0911B033091170323E0230F2D37BC
:1034200020F40196A11DB11D05C026E8230F0296C8
:10343000A11DB11D209317038093180390931903C6
:10344000A0931A03B0931B0380911C0390911D035A
:10345000A0911E03B0911F030196A11DB11D809381
:103460001C0390931D03A0931E03B0931F03BF91F1
:10347000AF919F918F913F912F910F900FBE0F9021
:103480001F901895CF92DF92EF92FF920F931F93A8
:10349000CF93DF93EC01E62E88E0F82E93ECC92E53
:1034A000D12C61E088810E941719C6010197F1F7BC
:1034B000E0FE02C060E001C061E089810E9417194E
:1034C00003EC10E0C6010197F1F760E088810E94EB
:1034D0001719C6010197F1F7E694FA94F110E1CFBC
:1034E00061E088810E94171960E089810E941719A4
:1034F000C8010197F1F760E088810E941719C8019F
:103500000197F1F789810E94BE18F82E811104C03D
:1035100061E089810E94171903EC10E0C80101974E
:10352000F1F761E088810E941719F8013197F1F7EE
:1035300081E0F11001C080E0DF91CF911F910F91E8
:10354000FF90EF90DF90CF9008950F931F93CF934C
:10355000DF938C0161E0FC0181810E941719C3ECAB
:10356000D0E0CE010197F1F760E0F80180810E9480
:103570001719CE010197F1F760E0F80181810E94EF
:1035800017192197F1F7DF91CF911F910F910895AE
:1035900061E0FC0181810E94171983EC90E00197A2
:1035A000F1F70895CF92DF92EF92FF920F931F935E
:1035B0000E94EC19C0901303D0901403E0901503FF
:1035C000F09016038B019C010C191D092E093F096F
:1035D0008091460290914702A0914802B091490221
:1035E000083E134021053105D0F00196A11DB11D03
:1035F0008093460290934702A0934802B0934902F9
:10360000B701A60148515C4F6F4F7F4F40931303A2
:10361000509314036093150370931603C9CF409120
:103620004202509143026091440270914502841716
:103630009507A607B70708F456C0E0914A02F09133
:103640004B02309709F44FC009956115710581054A
:10365000910539F1609346027093470280934802C6
:1036600090934902DC01CB01845D9E4FAF4FBF4F69
:103670008093420290934302A0934402B093450288
:1036800082E090E090931203809311030E94EC1962
:1036900060931303709314038093150390931603A0
:1036A00022C08091460290914702A0914802B091B9
:1036B0004902845D9E4FAF4FBF4F8093420290936B
:1036C0004302A0934402B093450281E090E0209130
:1036D000110330911203232B11F480E090E09093BA
:1036E000120380931103609146027091470280910A
:1036F0004802909149021F910F91FF90EF90DF9047
:10370000CF9008954F925F926F927F928F929F9287
:10371000AF92BF92CF92DF92EF92FF920F931F93DF
:10372000CF93DF934B015C0180910D0390910E03C9
:10373000A0910F03B091100388169906AA06BB0644
:1037400009F4C2C08CE3C82ED12CE12CF12CC501A8
:10375000B401A70196010E9486306093DE02CA017F
:10376000B901A70196010E9486306093DF02CA0169
:10377000B90128E130E040E050E00E948630690164
:103780007A016093E002CA01B9016C5F7F4F8F4FED
:103790009F4F27E030E040E050E00E9486306F5FAE
:1037A0006093E102412C512C320140E004E610E02C
:1037B000C0E9D1E0242F30E02E54384FF901E370F6
:1037C000FF27309789F4C901B8010E947230892B14
:1037D00031F4C901BE010E947230892B29F48EE6B2
:1037E00091E0A0E0B0E004C08DE691E0A0E0B0E0A0
:1037F000480E591E6A1E7B1ED301C201AA27BB2791
:10380000C816D906EA06FB0610F04F5FD3CF4093E7
:10381000E402309799F4C90164E670E00E947230C6
:10382000892B39F4C90160E971E00E947230892B5B
:1038300029F48EE691E0A0E0B0E004C08DE691E0CE
:10384000A0E0B0E0481A590A6A0A7B0AC418D508F1
:10385000E608F708C90164E670E00E947230EC01E6
:10386000C90160E971E00E947230ABE2B1E020E092
:10387000213039F4309749F4209729F4009729F43E
:1038800002C04C9103C04DE101C04CE150E060E04A
:1038900070E0C416D506E606F70640F0C41AD50A4D
:1038A000E60AF70A2F5F11962C3011F72F5F20934D
:1038B000E302C394C092E20280920D0390920E0341
:1038C000A0920F03B0921003DF91CF911F910F913F
:1038D000FF90EF90DF90CF90BF90AF909F908F9030
:1038E0007F906F905F904F900895FC01248131E0AC
:1038F0003093BC022093DD021092C1051092C005E6
:103900008385682B8FE096E00E94F50181E00C949E
:10391000260D0F931F93CF938C01C62F0E94751C09
:103920006C2F6460C8010E94751C6C2F6B7FC801EE
:103930000E94751C83EC90E00197F1F7CF911F91E5
:103940000F910895FF920F931F93CF93DF931F92D0
:10395000CDB7DEB78C01F62E962F907F692F642BA2
:10396000C80149830E94891C80E1F89EB00111249E
:103970004981642BC8010F90DF91CF911F910F9166
:10398000FF900C94891C41E00E94A21C81E090E011
:1039900008950895CF92DF92EF92FF920F931F93B5
:1039A000CF93DF936C017A018B01C0E0D0E0CE159C
:1039B000DF0589F0D8016D918D01D601ED91FC9163
:1039C0000190F081E02DC6010995892B11F47E014B
:1039D00002C02196ECCFC701DF91CF911F910F91CB
:1039E000FF90EF90DF90CF900895DC01ED91FC9176
:1039F0000280F381E02D42E050E06FE372E0099431
:103A00000F931F93CF93DF93EC01888199810097E7
:103A100029F02A813B812617370788F48B016F5FD5
:103A20007F4F0E941632009761F0998388831B8331
:103A30000A832C813D81232B11F4FC01108281E04B
:103A400001C080E0DF91CF911F910F910895CF9336
:103A5000DF93009779F0FC0101900020E9F731979E
:103A6000AF01481B590BBC0183E295E00E94CA1CC0
:103A7000EC0102C0C0E0D0E083E295E00E94F51CBA
:103A80008C0F9D1FDF91CF910895FC018081918162
:103A9000009711F00C947C2960E070E0CB01089550
:103AA000FC01248135816217730720F480819181A4
:103AB000009729F41092200380E293E00895860F86
:103AC000971F0895EF92FF920F931F93CF93DF9369
:103AD000FC01248135816115710511F480E019C064
:103AE00041155105A9F07B01EC018A01020F131F5A
:103AF000B8010E94001D882389F3288139818C81B7
:103B00009D81B701820F931F0E940F331D830C8389
:103B100081E0DF91CF911F910F91FF90EF90089579
:103B20000F931F93CF93DF938C01EB01FC018081F6
:103B300091810097B1F0688179816115710579F003
:103B4000428153812C813D814217530740F00E94EE
:103B50000F338C819D81F8019583848313C00E946B
:103B60007E3188819981F801918380838A819B814C
:103B7000938382838C819D819583848319821882AB
:103B80001B821A821D821C82DF91CF911F910F919F
:103B90000895CF93DF93EC0188819981009711F00C
:103BA0000E947E31198218821D821C821B821A8219
:103BB000DF91CF9108950F931F93CF93DF9300D0A0
:103BC000CDB7DEB78C0169831A8241E050E0BE01B7
:103BD0006F5F7F4F0E94621D811103C0C8010E9468
:103BE000C91DC8010F900F90DF91CF911F910F91C8
:103BF0000895CF93DF93EC01FB01448155816081EF
:103C000071810E94621D811103C0CE010E94C91DF5
:103C1000CE01DF91CF910895EF92FF920F931F9302
:103C2000CF93DF93EC017B018A01BA010E94001D52
:103C3000811104C0CE010E94C91D07C01D830C83E1
:103C4000B701888199810E940F33CE01DF91CF9116
:103C50001F910F91FF90EF900895CF93DF93EC01A8
:103C60006115710559F0FB0101900020E9F73197CA
:103C7000AF01461B570B0E940C1E02C00E94C91DBB
:103C8000CE01DF91CF910895CF93DF93EC01FB013B
:103C90008617970761F0608171816115710529F0C0
:103CA000448155810E940C1E02C00E94C91DCE0194
:103CB000DF91CF910895FC01808191810C947E3138
:103CC000EF92FF920F931F93CF93DF93CDB7DEB7A1
:103CD000A1970FB6F894DEBF0FBECDBF7C01CB011C
:103CE000BA01F701118210821382128215821482A6
:103CF00042E0420F8E010F5F1F4F0E945C29BC0102
:103D0000C7010E942D1EA1960FB6F894DEBF0FBE0C
:103D1000CDBFDF91CF911F910F91FF90EF9008954C
:103D20000F931F93CF93DF93CDB7DEB762970FB694
:103D3000F894DEBF0FBECDBF8C01CB01F80111821C
:103D40001082138212821582148250E0BE016F5FCE
:103D50007F4F0E94A729BE016F5F7F4FC8010E945D
:103D60002D1E62960FB6F894DEBF0FBECDBFDF9159
:103D7000CF911F910F910895CF93DF9300D0CDB7CE
:103D8000DEB7FC0111821082138212821582148226
:103D900069831A82BE016F5F7F4F0E942D1E0F90B4
:103DA0000F90DF91CF910895FC0111821082138250
:103DB0001282158214820C94441E0F931F93CF938A
:103DC000DF9300D000D000D0CDB7DEB78C01CE019C
:103DD00001960E94D41ECE0101960E94060CFC01A1
:103DE0006081718141E0C8010E94020BCE01019601
:103DF0000E945B1EC80126960FB6F894DEBF0FBE68
:103E0000CDBFDF91CF911F910F9108951F93CF9355
:103E1000DF9300D000D000D0CDB7DEB710912D06D3
:103E20006EE276E0CE0101960E94D41E612FCE0193
:103E300001960E94DB1DBC018EE296E00E94441EAA
:103E4000CE0101960E945B1E26960FB6F894DEBF47
:103E50000FBECDBFDF91CF911F910895FC0111825C
:103E6000108213821282158214826115710551F03D
:103E7000FB0101900020E9F73197AF01461B570B7A
:103E80000C940C1E08950F931F93CF93DF93EC01B6
:103E9000E881F981DB0114964D915C9115976D9144
:103EA0007C910280F381E02D09958C01CE010E9466
:103EB000F51C800F911FDF91CF911F910F910895F5
:103EC0005F926F927F928F929F92AF92BF92CF92AA
:103ED000DF92EF92FF920F931F93CF93DF93CDB7B3
:103EE000DEB7CA56D1090FB6F894DEBF0FBECDBFFC
:103EF0005C014B01BC01CE018B599F4F0E94D41E27
:103F0000CE018B599F4F0E94060CFC01C080D180CE
:103F10001EAE1DAE8DE491E09CAF8BAF21961FAE1F
:103F2000219719A218A29F8F8E8F1BA2712C612C32
:103F30007E01FBE3EF0EF11C00EF15E0272D362D7F
:103F4000F601E20FF31F80818F3211F42F5F3F4F94
:103F5000FE01E85AFF4F80E090E0D601A20FB31FA8
:103F60004C914F3249F0442339F001962F5F3F4F77
:103F700041938C30910589F7E8E5F0E0EC0FFD1FE7
:103F8000E80FF91F1082F601E20FF31F80818F32D4
:103F900011F42F5F3F4F722E632EF601E20FF31FD5
:103FA0008081811170C01C821B828DE491E09A8314
:103FB00089831E8222E0AE01485A5F4FB801CE01CC
:103FC00001960E9470158823F9F0CE0101960E9497
:103FD000750A8823C9F06F85788989899A8941E0B3
:103FE0000E94B10F882381F0EB8980E2E89FF00105
:103FF0001124EF5DFC4F309739F085EE80831E82EF
:104000000E94760F811105C0E5E0003F1E0729F4EC
:1040100007C085E0003F180719F0C8010E942F175C
:10402000CE018B599F4F0E945B1EB501CE014E966B
:104030000E94D41ECE014E960E94060CFC016081A7
:10404000718143E1CE0101960E94020BBE016F5FB8
:104050007F4F80916606909167060E94E907CE0126
:104060004E960E945B1E80916606909167060097AF
:1040700051F1B4010E94431F80916606909167063A
:104080000E94670420C021E0AE01485A5F4FB8018A
:10409000C7010E947015582EF5E0003F1F0761F020
:1040A000C8010E942F17552009F4BACF902F812FF5
:1040B0008701E92EF82E42CF882309F4B1CF8E0173
:1040C000025E1F4FF3CFC659DF4F0FB6F894DEBF25
:1040D0000FBECDBFDF91CF911F910F91FF90EF9059
:1040E000DF90CF90BF90AF909F908F907F906F9018
:1040F0005F9008954F925F926F927F928F929F92FE
:10410000AF92BF92CF92DF92EF92FF9280903C06E7
:1041100090903D06A0903E06B0903F06C0903406B9
:10412000D0903506E0903606F0903706A70196014C
:10413000C501B4010E94E02D18164CF01092400603
:104140001092410610924206109243063FC04090E2
:1041500038065090390660903A0670903B06A301ED
:104160009201C501B4010E946D3087FD0DC080E051
:1041700090E0A8ECB2E48093400690934106A093AF
:104180004206B093430622C0A7019601C501B401BF
:104190000E94582F4B015C01A7019601C301B20197
:1041A0000E94582F9B01AC01C501B4010E94C52F8C
:1041B00020E030E048EC52E40E94462E6093400636
:1041C000709341068093420690934306FF90EF90D0
:1041D000DF90CF90BF90AF909F908F907F906F9027
:1041E0005F904F9008958F929F92AF92BF92CF921F
:1041F000DF92EF92FF92CF93DF93C82F86EC95E08A
:104200009093220580932105CC2369F1C53010F0ED
:1042100080E00DC140E060E070E0CB010E94B10F92
:104220008823B1F320E1C29FC00111248F5E9C4F0F
:10423000FC01E254FE4F20812F7751F73C964081DC
:10424000518162817381443651056105710500F326
:104250003497C080D180E280F380C114D104E1049E
:10426000F10421F4D5CFC12CD12C760140E0C70157
:10427000B6010E94B10F882359F280912C039091CE
:104280002D038115924021F6A0913103AA2309F450
:10429000BFCF60912F03709130036115710509F450
:1042A000B7CF20912E03222309F4B2CFA093E405C7
:1042B0002093D60580E030E0E1E0F0E0C82FAF01C8
:1042C000082E02C0440F551F0A94E2F72417350741
:1042D00041F0982F8F5F983089F789E08093DF0550
:1042E00097CF8093DF052091370330913803211554
:1042F000310519F040E050E008C0209145033091AD
:10430000460340914703509148032093D7053093CB
:10431000D8054093D9055093DA0546015701860E1A
:10432000971EA11CB11C8092E5059092E605A09213
:10433000E705B092E805E0913203F0913303F09382
:10434000EB05E093EA05B0E00E94072F860E971E6A
:10435000A81EB91E8092EC059092ED05A092EE0584
:10436000B092EF0585E0EE0FFF1F8A95E1F7E1506F
:10437000FE4FEF2FFF27E6958E0E9F1EA11CB11C4E
:104380008092E0059092E105A092E205B092E305EB
:1043900020913403309135032115310521F0A90115
:1043A00060E070E008C04091410350914203609189
:1043B000430370914403D701C60188199909AA09DA
:1043C000BB09840F951FA61FB71F04C0B695A795FC
:1043D00097958795CA95D2F78093DB059093DC0576
:1043E000A093DD05B093DE05853F2FE09207A10580
:1043F000B10510F48CE018C0853F9F4FA105B105B1
:1044000010F480E111C080914D0390914E03A09172
:104410004F03B09150038093EC059093ED05A0936A
:10442000EE05B093EF0580E28093E90581E0DF912E
:10443000CF91FF90EF90DF90CF90BF90AF909F9083
:104440008F900895CF93DF93CDB7DEB7E7970FB680
:10445000F894DEBF0FBECDBF789484B5826084BD72
:1044600084B5816084BD85B5826085BD85B5816078
:1044700085BD80916E00816080936E0010928100F6
:1044800080918100826080938100809181008160B1
:104490008093810080918000816080938000809172
:1044A000B10084608093B1008091B00081608093FE
:1044B000B00080917A00846080937A0080917A00C5
:1044C000826080937A0080917A00816080937A0084
:1044D00080917A00806880937A001092C100E09108
:1044E0003305F091340582E08083E0912F05F0914F
:1044F00030051082E0913105F091320583E380832D
:1045000010923B05E0913705F091380586E08083F5
:10451000E0913505F0913605808180618083E091DE
:104520003505F0913605808188608083E0913505FE
:10453000F0913605808180688083E0913505F091A7
:10454000360580818F7D808300914B0610914C064B
:104550001092C3051092C2051092C1051092C005B9
:104560000E941A07D80115961C92159719968C91DE
:104570001997823018F098E015969C93F80192856F
:10458000992329F0813019F485818460858362E361
:1045900070E080E090E00E94B219D8011B966C9107
:1045A000C8010E94751C68EE73E080E090E00E94F4
:1045B000B21960E3C8010E94891C7BE4E72E76E40F
:1045C000F72EC7010197F1F760E3C8010E94891C2B
:1045D000C7010197F1F760E3C8010E94891C83E5D8
:1045E00092E00197F1F760E2C8010E94891CF8018E
:1045F0006581606240E0C8010E94A21C84E0D8018D
:1046000016968C9340E06CE0C8010E94A21C40E02A
:1046100061E0C8010E94A21CEBE3EE2EEFE1FE2E4A
:10462000C7010197F1F782E0F801878340E066E077
:10463000C8010E94A21C40E062E0C8010E94A21CC6
:10464000C7010197F1F785E29EE090934B028093BA
:104650004A028091460290914702A0914802B0918F
:1046600049028093420290934302A0934402B09384
:1046700045020E94D21A61E472E0CE018E960E9439
:104680002E1F61E472E0CE0188960E942E1F61E425
:1046900072E0CE0182960E942E1F0E94FA086CEBF7
:1046A00071E0CE014C960E942E1FBE01645E7F4FCA
:1046B0008E010F5F1F4FC8010E94DD1EB80188E602
:1046C00096E00E94E907CE014C960E945B1EE091A5
:1046D0008106F0918206309789F5CE0188960E9476
:1046E000451D60933406709335068093360690938B
:1046F0003706CE0182960E94451D6093380670935E
:10470000390680933A0690933B06CE0182960E942A
:104710005B1ECE0188960E945B1ECE018E960E9483
:104720005B1E0E94120854E0252E200E3324339481
:104730006AE0462E512C612C712CC8C185818823DA
:1047400061F2C8010E94F70DB801CE018E960E9459
:10475000901DC8010E945B1E10922306E12CF12CD3
:10476000B701CE018E960E94501DFC0180818C32D3
:1047700011F1B701CE018E960E94501DDC01DC9034
:10478000BE01685D7F4FC8010E94D41E6D2DC80117
:104790000E94DB1DBC01CE0188960E94441EC80108
:1047A0000E945B1EBFEFEB1AFB0A8BE196E00E94B2
:1047B00038070397ACF2FFEFEF1AFF0A10922306B7
:1047C0008AA99BA9E816F90608F087CFB701CE01A0
:1047D0008E960E94501DDC01DC90BE016E5D7F4F05
:1047E000C8010E94D41E6D2DC8010E94DB1DBC01B2
:1047F000CE0182960E94441EC8010E945B1EBFEF3C
:10480000EB1AFB0ADDCFD601BE90AE906D01CF0151
:10481000B5010E9472306115710509F469C1A62FB6
:10482000AF70B0E0A65FBE4F5C916A9DC0016B9D0A
:10483000900D7A9D900D1124E81BF90B812C892D88
:104840008078582B990CD9015D939D014F5F4430BE
:10485000D1F6C7010E94C81A60E4C7010E94421A3B
:10486000C7010E94A51AC7010E94C81A60ECC701BF
:104870000E94421A6801F60161916F01C7010E940E
:10488000421A2C10F8CFC7010E94A51AC7010E9436
:10489000C81AD70112966C916F706058C7010E94B8
:1048A000421AC7010E94A51A83E295E00E946C1784
:1048B000181619060CF424C10E948F0C8436910539
:1048C00009F0E7C061E0809145060E94E71860E6C4
:1048D0007AEE80E090E00E94B219812C912C540174
:1048E0009AE0E92EF12C809144068E3008F08E502B
:1048F0008770806480937C0080917A0080648093CC
:104900007A0080917A0086FDFCCF609178008091DA
:10491000790070E0782B072E000C880B990B0E9411
:10492000E72D9B01AC0160933C0670933D0680939C
:104930003E0690933F06C501B4012CAB3DAB4EAB98
:104940005FAB0E94E72D2CA93DA94EA95FA90E944B
:10495000592F0E9437304B015C0161E070E080E02C
:1049600090E00E94B21981E0E81AF10809F0BBCF8B
:10497000C501B401A30192010E94A830CA01B90186
:104980000E94E72D60933C0670933D0680933E069F
:1049900090933F060E947A2060E0809145060E9435
:1049A000E7180E94FA0860913C0670913D068091DC
:1049B0003E0690913F060E9437306B017C0161E416
:1049C00072E0CE018E960E942E1F0E94D21A0E9483
:1049D000821B8091E40290E0BC016E54784F4AE063
:1049E000CE0188960E94901E0E94D21A0E94821BBD
:1049F0006091E30270E04AE0CE0182960E94901E30
:104A00000E94D21A0E94821B6091E20270E04AE08A
:104A1000C8010E94901EB801CE014C960E94D41E7F
:104A20006DE2CE014C960E94DB1DBE016E5D7F4F94
:104A30000E94F91D6DE20E94DB1DBE01685D7F4F83
:104A40000E94F91DBC01CE018E960E94441ECE012B
:104A50004C960E945B1EC8010E945B1ECE0182968E
:104A60000E945B1ECE0188960E945B1E67EA71E081
:104A7000C8010E942E1FA601BE01625D7F4FC801C2
:104A80000E94180CC8010E945B1ECE018E960E94E7
:104A90005B1E80915706882309F410C284E296E0D9
:104AA0000E9438070C970CF4DEC110925706109242
:104AB0004D0660E070E0809156060E945319809187
:104AC00058068111109258060E940C180E948F0CF3
:104AD000FC01E0904606F090470622E2C22E21E05B
:104AE000D22E980140E4942E8824839440E08BCE0B
:104AF000882011F0433011F45FE3A1CE50E09FCE47
:104B000083E295E00E944A1780932D068A3019F0BF
:104B10000E94061FC9CE6EE276E0C8010E94D41E34
:104B20008D819E81892B51F063EA71E089819A81A0
:104B30000E940633FF24F394892B09F0F12CC8015D
:104B40000E945B1EFF2009F46BC00E94FA0867EA0E
:104B500071E0CE014C960E942E1FBE01645E7F4F15
:104B6000C8010E94DD1EB80188E696E00E94E907B0
:104B7000CE014C960E945B1EE0918106F091820668
:104B8000309709F444C08581882309F440C088E641
:104B900096E00E943001892BF1F1C8010E94F70DC7
:104BA000B80183E295E00E94431FC8010E945B1E8A
:104BB000EECF6EE276E0C8010E94D41E8D819E8108
:104BC000892B09F07AC0C8010E945B1EFF2009F4FE
:104BD00098C00E94FA086CEB71E0CE014C960E94DE
:104BE0002E1FBE01645E7F4FC8010E94DD1EB8010A
:104BF00088E696E00E94E907CE014C960E945B1E73
:104C0000E0918106F0918206309709F063C08CEA4A
:104C100091E00E94271D88E696E00E94670475C017
:104C20006EE276E0C8010E94D41E8D819E81892BA0
:104C300059F066EB71E089819A810E940633FF2466
:104C4000F394892B09F0F12CC8010E945B1EFF2010
:104C500009F4AFCF61E472E08EE296E00E942D1E6F
:104C600080EC91E00E94271D1092230683E295E0DC
:104C70000E946C1718161906C4F08BE196E00E948A
:104C8000380705979CF311C083E295E00E944A170C
:104C900080932D068A3009F43FC00E94061F61E010
:104CA00070E080E090E00E94B21983E295E00E94FB
:104CB0006C171816190644F328C063EC71E089815B
:104CC0009A810E940633FF24F394892B09F47BCF49
:104CD000F12C79CF8581882309F499CF88E696E075
:104CE0000E943001892B09F496CFC8010E94F70D6C
:104CF000B80183E295E00E94431FC8010E945B1E39
:104D0000EDCF8CEA91E00E94271D61E472E08EE213
:104D100096E00E942D1EC8CD6EE276E0CE01889608
:104D20000E94D41E0E94FA08BE01685D7F4FC80130
:104D30000E94D41E6CEB71E0CE014C960E942E1F97
:104D4000B801CE014C960E94601FCE014C960E9485
:104D50005B1EC8010E945B1E61E472E0CE01829678
:104D60000E942E1F61E472E0CE014C960E942E1F1D
:104D700010922306E12CF12CB701CE0188960E94F7
:104D8000501DDC018C918C3211F1B701CE01889657
:104D90000E94501DFC01D080BE016E5D7F4FC80196
:104DA0000E94D41E6D2DC8010E94DB1DBC01CE01E6
:104DB00082960E94441EC8010E945B1EFFEFEF1AFC
:104DC000FF0A8BE196E00E9438070397ACF2BFEF31
:104DD000EB1AFB0A8CA59DA5E816F906E8F4B701C5
:104DE000CE0188960E94501DFC01D080BE01645EF9
:104DF0007F4FC8010E94D41E6D2DC8010E94DB1D8B
:104E0000BC01CE014C960E94441EC8010E945B1E4C
:104E1000FFEFEF1AFF0ADECFCE0182960E94451DFA
:104E20006093340670933506809336069093370668
:104E3000CE014C960E94451D60933806709339064A
:104E400080933A0690933B06CE014C960E945B1EDF
:104E5000CE0182960E945B1ECE0188960E945B1E48
:104E60000E94120852CF84E296E00E943807089709
:104E7000ECF060914D06633388F070E08091560647
:104E80000E94531963E070E080E090E00E94B21944
:104E900080914D06815080934D06EBCF8091830623
:104EA0000E94BE18892B09F40FCE12C08091830690
:104EB0000E94BE18892B09F407CE1EC00E94D10D96
:104EC000809183060E94BE18892B09F4FDCDADC0E8
:104ED000309257068FEF80934D066FEF70E0809110
:104EE00056060E94531910922C0668EE73E080E07B
:104EF00090E00E94B219E8CD4091340650913506F9
:104F0000609136067091370620E0CE0188960E94A7
:104F1000601E409138065091390660913A067091B2
:104F20003B0620E0CE0182960E94601E8CA59DA5C6
:104F3000099798F460E2C8010E94BC1EBE01685D3A
:104F40007F4FC8010E94F91DBC01CE0188960E94C6
:104F5000441EC8010E945B1EE9CF8EA19FA1099744
:104F600098F460E2C8010E94BC1EBE016E5D7F4FD6
:104F7000C8010E94F91DBC01CE0182960E94441E08
:104F8000C8010E945B1EE9CF0E94D10D80E00E9403
:104F90009C0D6BEC71E0CE014C960E942E1FBE0161
:104FA000685D7F4FCE014C960E94F91DBC01C8017F
:104FB0000E94D41EC8010E94830DC8010E945B1E7E
:104FC000CE014C960E945B1E81E00E949C0D63ED19
:104FD00071E0CE014C960E942E1FBE016E5D7F4F88
:104FE000CE014C960E94F91DBC01C8010E94D41E3E
:104FF000C8010E94830DC8010E945B1ECE014C9621
:105000000E945B1ECE0182960E945B1ECE01889696
:105010000E945B1E10922C0668EB7BE080E090E023
:105020000E94B2190E9462074FCD84E296E00E946E
:105030003807459724F4809158068823D9F10E94B7
:10504000DE0D0E94D10D80E00E949C0D6BED71E0A1
:10505000C8010E942E1FC8010E94830DC8010E9432
:105060005B1E81E00E949C0D6DEF71E0C8010E9403
:105070002E1FC8010E94830DC8010E945B1E81E1A2
:10508000E82EF12C40E068E180914B0690914C06AF
:105090000E94A21C68E270E080E090E00E94B219D9
:1050A000A1E0EA1AF10871F760ED77E080E090E0A6
:1050B0000E94B2190E94620780915706882319F056
:1050C00010922C0601CD0E94DE0DFACF8EE296E002
:1050D0000E945B1E80E596E00C945B1ECF92DF92EF
:1050E000EF92FF920F931F93CF93DF93E3E2F5E0EC
:1050F0001382128288EEC82E83E0D82EE12CF12C88
:10510000C482D582E682F7828BE391E0918380832B
:1051100085EC90E09587848784EC90E0978786877C
:1051200080EC90E0918B808B81EC90E0938B828B74
:1051300082EC90E0958B848B86EC90E0978B868B4D
:10514000118E128E138E148E1092C3051092C2050A
:105150001092C1051092C0050E941A07E4ECF5E018
:1051600080E580831182E6ECF5E0158216821186D7
:10517000138682E090E0A0E0B0E084879587A68760
:10518000B78713A215A614A68DE491E093A782A772
:1051900017A6EFE0F6E013821282C482D582E6827F
:1051A000F78289E591E09183808386E0809383068E
:1051B00060E00E941719E8E6F6E013821282C482CA
:1051C000D582E682F78287E791E091838083128E11
:1051D000118E1486A5E6B6E084E08C931296FC93BB
:1051E000EE93119761E00E941719C9E5D6E01B8282
:1051F0001A828BE691E09983888387E28C8380E131
:10520000888799E0E92EE9861A8628E0F22EFB8647
:1052100061E472E080E596E00E942E1F0BE416E048
:1052200081E0F8018587E38661E089E00E94171933
:10523000F801D183C0831486C8E4D6E082E0888375
:10524000F98260E00E94171960E089810E941719B5
:1052500060E088810E94E71860E089810E94E71879
:10526000D0934706C09346068FE08A83C4E3D6E016
:10527000888B87E0898B60E08FE00E94171961E0DE
:1052800089890E94171961E472E08EE296E00E941B
:105290002E1F61E472E08EE296E00E942D1E1092B5
:1052A0002C0610922306DF91CF911F910F91FF9052
:1052B000EF90DF90CF900895EF920F931F93CF93CD
:1052C000DF93E80147FD02C034E001C034E1E42F80
:1052D000440FFF0BF7FF03C0F195E195F109E32EB1
:1052E000022F2E2FAE010E94EC29CE01DF91CF912B
:1052F0001F910F91EF900895662777270C947A2BD2
:105300001F93FC0199278827BC01E8941191103262
:10531000E9F3193010F01E30C8F31B3251F01D3282
:1053200049F4689406C00E94BD29610F711D811D5A
:10533000911D119110531A30B0F33EF49095809561
:10534000709561957F4F8F4F9F4F1F910895453204
:10535000510520F4423010F00C94B229FB01108268
:10536000CB010895BB274A3031F4992322F4BDE2E2
:10537000909581959F4F0C94D329592F482F372F03
:10538000262F660F771F881F991F660F771F881FAC
:10539000991F620F731F841F951F660F771F881F49
:1053A000991F0895BB27FB015527AA27880F991F2E
:1053B000AA1FA41710F0A41B83955051B9F7A05D44
:1053C000AA3308F0A95DA193009779F7B111B193C1
:1053D0001192CB010C94D02D4F925F926F927F92DD
:1053E0009F92AF92BF92CF92DF92EF92FF920F9374
:1053F0001F93CF93DF93CDB7DEB729970FB6F894FD
:10540000DEBF0FBECDBF6A01122FB02E2BE32017D7
:1054100020F0FF24F394F00E02C0BCE3FB2E0F2D0E
:1054200027E0AE014F5F5F4F0E94D72CAC0189810E
:10543000982F9970913031F0E1FC06C0E0FE06C073
:1054400090E205C09DE203C09BE201C090E0EE2D1A
:10545000E07183FF3CC0911102C083E001C084E091
:10546000811718F4212F281B01C020E0E1110BC087
:10547000F601822F30E2882319F031938150FBCF5F
:10548000C20ED11C20E0992329F0D6019C93F6018D
:1054900031966F01C6010396E2FE0AC03EE4D601D2
:1054A0003C9341E411964C93119712963C9306C09D
:1054B0003EE6F601308341E641833283FC01322F20
:1054C00040E2332309F442C041933150FACF82FFC6
:1054D00044C0911102C083E001C084E0811718F438
:1054E000212F281B01C020E0E1110BC0F601822F03
:1054F00030E2882319F031938150FBCFC20ED11CCA
:1055000020E0992329F0D6019C93F60131966F0192
:10551000C6010396E2FE0BC039E4D6013C933EE49B
:1055200011963C93119736E412963C9307C039E6E6
:10553000F60130833EE6318336E63283FC01322FBA
:1055400040E2332319F041933150FBCFFC01E20FCD
:10555000F11D10828EEF9FEFB7C0F1E0911101C0F5
:10556000F0E06F2F70E01416150624F49A012F5FF7
:105570003F4F02C021E030E0260F371FBB2029F04B
:105580006B2D70E06F5F7F4F02C060E070E0260F10
:10559000371F612F70E0261737071CF4121B212FCD
:1055A00001C020E03E2D387159F4D601322F60E25F
:1055B000332319F06D933150FBCFC20ED11C20E084
:1055C000FF2331F0D6019C93B6016F5F7F4F6B01D3
:1055D000E1110BC0F601922F30E3992319F03193BA
:1055E0009150FBCFC20ED11C20E09F2D940F3A8129
:1055F000782F7071A72E84FF03C0313309F49150C6
:10560000191624F4993018F098E001C091E0E42FC5
:10561000852F57FF02C0E0E080E06E2F782FE0E09A
:10562000F0E0AEE29A2E3A01691A71082A01461A90
:10563000570A0B2D10E01195019511096F3F8FEF5F
:10564000780729F4D6019C92C60101966C01461791
:10565000570784F0661677066CF47F01E40CF51C9E
:10566000A1E0B0E0AC0FBD1FEA0EFB1ED701119602
:10567000BC9002C090E3B92E615071093196C60109
:1056800001967C016017710724F0D601BC926C0171
:10569000D5CF6417750741F4363320F4353321F440
:1056A000A11002C081E3B82EF601B082F701822F6B
:1056B00090E2882319F091938150FBCFF701E20F1C
:1056C000F11D108280E090E029960FB6F894DEBFBD
:1056D0000FBECDBFDF91CF911F910F91FF90EF9043
:1056E000DF90CF90BF90AF909F907F906F905F9032
:1056F0004F900895A0E0B0E0E0E8FBE20C94162F94
:10570000EC017B016115710519F0DB018D939C9310
:105710008E010F5F1F4F7880872D90E00E94AF2D84
:10572000892B11F0E801F4CFBDE27B1205C00F5FB9
:105730001F4F7980C1E008C0EBE27E1204C08E01E9
:105740000E5F1F4F7980C0E06801F1E0CF1AD108E9
:1057500043E050E060E770E0C6010E94B82D892B5D
:10576000F1F4680122E0C20ED11C45E050E06BE686
:1057700070E0C6010E94B82D892B21F4680187E0F2
:10578000C80ED11CE114F10419F0D701CD92DC92BE
:10579000C111FFC060E070E080E89FE703C143E013
:1057A00050E068E670E0C6010E94B82D892B51F4E4
:1057B000E114F10409F4F2C00E5F1F4FF7011183E9
:1057C0000083ECC0680160E070E0CB0100E010E015
:1057D000F601D0EDD70DDA3058F52C2F2260622E6D
:1057E0002C2F2870C2FF05C0211128C00F5F1F4F4A
:1057F00025C0222311F001501109A5E0B0E09B0162
:10580000AC010E94072F4B015C01880C991CAA1C5B
:10581000BB1CC501B4016D0F711D811D911D68393F
:10582000A9E97A078A07A9E19A0740F0C66005C08E
:10583000DE3F51F4C3FD44C0C8606C2EBFEFCB1AED
:10584000DB0A7080C62DC4CF2D2F2F7D2531C1F5E9
:1058500040814D3211F4C06106C04B3221F03196C7
:1058600021E030E006C03296D60111964C9122E03C
:1058700030E0A0EDA40FAA3018F0E21BF30B20C01B
:1058800040E050E04038BCE05B075CF49A01220F36
:10589000331F220F331F420F531F440F551F4A0F50
:1058A000511D3196DF0111972C91A0EDA20FAA3066
:1058B00048F3C4FF03C0519541955109040F151FCA
:1058C000C1FF07C0E114F10421F03197D701ED9336
:1058D000FC930E94E52DC370C33019F06B017C016D
:1058E00006C06B017C01F7FAF094F7F8F09420E021
:1058F00030E0A901C701B6010E94E02D882309F418
:1059000045C017FF06C0119501951109C7E8D0E001
:1059100002C0CFE9D0E05E01B8E1AB1AB1084601A0
:10592000BE2DAF2D90E2E92EF12C0E151F0584F04F
:10593000FE012591359145915491B4018B2F9A2FF9
:105940000E94462E4B01B82FA92F0E191F09EDCF2B
:105950002497F594E794CA15DB0539F76401EB2E1B
:10596000FA2E8E2D880F8F2D881F8F3F49F020E053
:1059700030E0A901C701B6010E94E02D811106C0E7
:1059800082E290E09093850680938406C701B60179
:1059900009C060E070E080E89FEF04C060E070E064
:1059A00080EC9FE7CDB7DEB7EEE00C94322F2830C5
:1059B00008F027E03327DA01990F311D87FD916048
:1059C00000966105710539F432602E5F3D9330E336
:1059D0002A95E1F708959F3F30F080387105610501
:1059E00009F03C5F3C5F3D93913008F08068911D69
:1059F000DF93CF931F930F93FF92EF92192F987F0E
:105A00009695E92F96959695E90FFF27E350FF4F5E
:105A100099273327EE24FF24A701E7010590089476
:105A2000079428F4360FE71EF81E491F511D660F14
:105A3000771F881F991F0694A1F70590079428F4F3
:105A4000E70EF81E491F561FC11D770F881F991FAB
:105A5000661F0694A1F70590079428F4F80E491FD5
:105A6000561FC71FD11D880F991F661F771F0694E9
:105A7000A1F70590079420F4490F561FC71FD81FA0
:105A8000990F661F771F881F0694A9F784911095B8
:105A9000177041F0D695C79557954795F794E794B9
:105AA0001A95C1F7E3EAF0E06894159015913591E5
:105AB0006591959105907FE27395E118F10A430B8A
:105AC000560BC90BD009C0F7E10CF11E431F561F3E
:105AD000C91FD01D7EF4703311F48A95E6CFE89487
